:020000040000FA
:06000000EDEF16F0120006
:06102A000100F82D00009A
:0810300030010000090000007E
:08103800D9CFE6FFE1CFD9FF9B
:10104000E652A09A6A6A686A706A010EE66EE66AFB
:10105000E66A710EE66E0F0EE66E6CEC16F0146E1C
:10106000050EE15E1450120E6F6E9F0E6B6E7B0EBE
:10107000696EDF6ADF50146E156A080E145C000E8C
:10108000155810E2DF50040DF3CFE9FFF4CFEAFF6B
:10109000000EE926040EEA22EE6AEE6AEE6AEE6AB5
:1010A000DF2AE8D76D8C6E6A6D986D9C68A607D0B4
:1010B00068960101146B196B1A6B1B6BF7D7010152
:1010C000010E2C6F2D6F2E6B2F6B226BDF6A020EC1
:1010D000DF5C26E2EA6ADF34FE0BEA36E96E0B0ECD
:1010E000E926010EEA22EE6AED6AEA6ADF34FE0BB7
:1010F000EA36E96E070EE926010EEA22EE6AED6A8B
:10110000DF50EA6A260FE96E010EEA22EF6ADF502D
:10111000EA6A280FE96E010EEA22EF6ADF2AD7D7C2
:101120000101080E0B6F040E0C6F160E706E040199
:10113000200E026F040E036F080E016F840E006F05
:101140000101016B006BE552E552E7CFD9FF1200B8
:10115000D9CFE6FFE1CFD9FFE652010100510FE1FF
:101160006D6A696A120E6F6E9F0E6B6E7B0E696EF2
:101170006DB602D06D86FCD70101010E006F00052F
:1011800008E16DBA06D0686A696A69806988020EEA
:10119000006F6850040B06E06950040B03E068948C
:1011A000D0EC0EF06DB258D06850010B08E06950D9
:1011B000010B05E041DF0101040E006F68906850EB
:1011C000100B06E06950100B03E0BBEC0EF06898C2
:1011D00068AC19D069AC0FD0010EE66EE66A000E5D
:1011E000E66EE66A730EE66EE66AC7EC13F0146EFE
:1011F000060EE15E1450689C01012A5101E02A07A5
:101200002A5101E1DFD96850200B05E06950200B1D
:1012100002E0A2EC0EF06850020B13E06950020BE2
:1012200010E0010EE66EE66A000EE66EE66AE6681B
:101230007F0EE66EC7EC13F0146E060EE15E1450DE
:101240006A6A040E0101E76E0019E8AE02D0E734C5
:1012500002D0E750005D02E2A19A39D069A636D0EB
:10126000DF6A040EDF5C32E268A630D06CCF23F177
:1012700001012351780BE842E842E842246F689666
:1012800023B506D02451EA6A280FE96E010E05D075
:101290002451EA6A260FE96E010EEA22EF7024510A
:1012A00003E1E7EC0EF010D0000EE66EE66A230EC6
:1012B000E66E010EE66E720EE66EE66AC7EC13F09D
:1012C000146E060EE15E1450DF2ACBD7A19AE552C8
:1012D000E552E7CFD9FF1200D9CFE6FFE1CFD9FF22
:1012E000020EE126FD0EDBA407D0E66AFE0EDBCF80
:1012F000E6FFF7D9E552E552FD0EDBA208D0010E5C
:10130000E66EFE0EDBCFE6FFECD9E552E552FE0EAF
:10131000DB50156A700F146E0F0E152214C0DEFF1D
:1013200015C0DDFFDECFE9FFDDCFEAFFFD0EDBCF2D
:10133000EFFF020EE15C02E2E16AE552E16EE55286
:10134000E7CFD9FF1200D9CFE6FFE1CFD9FF020ED8
:10135000E126FD0EDB500AE0FE0EEA6ADB34FE0BEE
:10136000EA36E96E0B0EE926010E09D0FE0EEA6A96
:10137000DB34FE0BEA36E96E070EE926010EEA229F
:10138000EECFDEFFEDCFDDFFD9CFE9FFDACFEAFF09
:10139000EE50ED1003E1F36AF46A44D0DECFE9FFCA
:1013A000DDCFEAFF020EE926000EEA22FB0EDBCFBC
:1013B000EEFFFC0EDBCFEDFFDECFE9FFDDCFEAFF76
:1013C000EE52FA0EDBCFEFFF400EDECFE9FFDDCFAE
:1013D000EAFFE850EF16880EDECFE9FFDDCFEAFF27
:1013E000E850EF12FD0EDB500AE0FE0EEA6ADB3435
:1013F000FE0BEA36E96E0B0EE926010E09D0FE0E51
:10140000EA6ADB34FE0BEA36E96E070EE926010EC6
:10141000EA22EF74DECF14F0DDCF15F014C0F3FF35
:1014200015C0F4FF020EE15C02E2E16AE552E16EF2
:10143000E552E7CFD9FF1200D9CFE6FFE1CFD9FFC0
:10144000020EE126FE0EDB5020E105C1E9FF06C1D8
:10145000EAFFEE52080EEF6E05C1E9FF06C1EAFF92
:10146000020EE926000EEA22200EEE6E040EED6E4C
:1014700005C1E9FF06C1EAFF8C0EEF6E0BC1E9FF63
:101480000CC1EAFF840EEF6E3BD0FD0EDB50E8246A
:10149000166EFE0EDB50040DF3501624040DF3CF30
:1014A00014F0F4CF15F0000E1426040E152214C00B
:1014B000DEFF15C0DDFF840EDECFE9FFDDCFEAFFE2
:1014C000E850EF12FD0EDB50E824166EFE0EDB50E6
:1014D000040DF3501624010F040DF3CF14F0F4CFD4
:1014E00015F0000E1426040E152214C0DEFF15C0E0
:1014F000DDFF840EDECFE9FFDDCFEAFFE850EF121B
:10150000020EE15C02E2E16AE552E16EE552E7CFEC
:10151000D9FF1200D9CFE6FFE1CFD9FF6DA84ED099
:10152000FE0EEA6ADB34FE0BEA36E96E0B0EE926A4
:10153000010EEA22EE50EFCFEAFFE96E400EEE1602
:10154000EE6AEE6AEE6AFE0EEA6ADB34FE0BEA36FB
:10155000E96E0B0EE926010EEA22EE50EFCFEAFF0C
:10156000E96EEE7CFE0EEA6ADB34FE0BEA36E96ECB
:101570000B0EE926010EEA22EF74400E146EFE0EE9
:10158000EA6ADB34FE0BEA36E96E0B0EE926010E41
:10159000EA22EE50EFCFEAFFE96E1450EF16FE0E8E
:1015A000EA6ADB34FE0BEA36E96E0B0EE926010E21
:1015B000EA22EE50EFCFEAFFE96EEF7CE552E7CF8B
:1015C000D9FF120001012C514DE1010E2C6F2D515C
:1015D00049E1010E2D6F020E105D0DE10BC1E9FF17
:1015E0000CC1EAFFEE52EF6A0BC1E9FF0CC1EAFF42
:1015F000C80EEF6E1200100535E1256B03C1E9FF3F
:1016000004C1EAFFEE52080EEF6E03C1E9FF04C108
:10161000EAFF020EE926000EEA22200EEE6E040E0C
:10162000ED6E03C1E9FF04C1EAFF840EEF6E010E07
:10163000256F05C1E9FF06C1EAFFEE52080EEF6E05
:1016400005C1E9FF06C1EAFF020EE926000EEA2203
:10165000200EEE6E040EED6E05C1E9FF06C1EAFF35
:10166000800EEF6E120001012E6B2F6B020E105DCB
:1016700018E105C1E9FF06C1EAFFEE52080EEF6E60
:1016800005C1E9FF06C1EAFF020EE926000EEA22C3
:10169000280EEE6E040EED6E05C1E9FF06C1EAFFED
:1016A0001DD015510401265D010116510401275971
:1016B00004E226C415F127C416F1CAD80BC1E9FF0C
:1016C0000CC1EAFF020EE926000EEA22280EEE6E99
:1016D000040EED6E0BC1E9FF0CC1EAFFC80EEF6E00
:1016E0001200D9CFE6FFE1CFD9FF020EE126000EAE
:1016F000DE6E040EDD6EFD0EDB50E824166EFE0E6F
:10170000DB50040DF3501624040DF4CF15F0D9CF9F
:10171000E9FFDACFEAFFF350EE261550ED22DECFD7
:10172000E9FFDDCFEAFFEF9EFD0EDB500AE1FE0E82
:10173000EA6ADB34FE0BEA36E96E070EE926010E93
:1017400009D0FE0EEA6ADB34FE0BEA36E96E0B0EB8
:10175000E926010EEA22DECFEEFFDDCFEDFFDECF80
:10176000E9FFDDCFEAFFEF9CDECFE9FFDDCFEAFF47
:10177000040EE926000EEA22EF8C020EE15C02E282
:10178000E16AE552E16EE552E7CFD9FF12006D98AC
:10179000010114BF2BD019AF09D0020E106F2F51C9
:1017A00001E161DF01012D6B2C6B120005C1E9FF26
:1017B00006C1EAFFEE52080EEF6E05C1E9FF06C151
:1017C000EAFF020EE926000EEA22200EEE6E040E5B
:1017D000ED6E05C1E9FF06C1EAFF8C0EEF6E0BC18D
:1017E000E9FF0CC1EAFF840EEF6E1200040120AF86
:1017F0000DD00101010E106F2E5101E134DF010106
:101800002D6B2C6B2B5123E1E2EF0AF00101020E4C
:10181000106F05C1E9FF06C1EAFFEE52080EEF6E38
:1018200005C1E9FF06C1EAFF020EE926000EEA2221
:10183000200EEE6E040EED6E05C1E9FF06C1EAFF53
:10184000840EEF6E2D6B2C6B2B5101E1BBDE120071
:10185000D9CFE6FFE1CFD9FFE652080EDF6E0101D6
:10186000155D000E16590AE215C1DFFF0F5102E1A6
:10187000010E03D00F0502E1020E0F6FDF50156A53
:10188000E850155D156F15501659166F0BC1E9FF1D
:101890000CC1EAFFEE52DFCFEFFF280E1F6F040EE0
:1018A000206F14B11BD0DF5030E011C1F6FF112BB7
:1018B00012C1F7FF000E122313C1F8FF1323080013
:1018C000F550E66E1FC1E9FF20C1EAFF1F2B000E95
:1018D0002023E552E750EF6EDF06E5D7DF5015E035
:1018E00011C1E9FF12C1EAFF112B000E1223EF50C4
:1018F000E66E1FC1E9FF20C1EAFF1F2B000E202367
:10190000E552E750EF6EDF06E9D7E552E552E7CF43
:10191000D9FF1200D9CFE6FFE1CFD9FF020EE126B1
:1019200003C1E9FF04C1EAFFEE52EFCFDFFFDFCFD3
:1019300014F0145001011A5D000E1B5902E21AC185
:10194000DFFFDF50146E156AE8501A5D1A6F1550EC
:101950001B591B6F010EDB6ADF50F36E010EDBCFEC
:10196000F4FFF350F45C16E2010EDB50EA6A280F34
:10197000E96E040EEA22EF50E66E17C1E9FF18C1C6
:10198000EAFF172B000E1823E552E750EF6E010E09
:10199000DB2AE2D7000ED8801A55000E1B5527E22D
:1019A00005C1E9FF06C1EAFFEE52080EEF6E05C160
:1019B000E9FF06C1EAFF020EE926000EEA22280E20
:1019C000EE6E040EED6E03C1E9FF04C1EAFFEF50B5
:1019D000400B06E105C1E9FF06C1EAFFC80E05D0CC
:1019E00005C1E9FF06C1EAFF880EEF6E2BD005C1E5
:1019F000E9FF06C1EAFFEE52080EEF6E05C1E9FFEE
:101A000006C1EAFF020EE926000EEA22200EEE6E63
:101A1000040EED6E05C1E9FF06C1EAFF840EEF6E0C
:101A20001C511D111E1109E007D01EC1FBFF1DC175
:101A3000FAFF01011C51F96EF8DF0101199F2B51CA
:101A400001E1C0DD020EE15C02E2E16AE552E16E15
:101A5000E552E7CFD9FF1200D9CFE6FFE1CFD9FF9A
:101A6000E6520101148F010EE66EE66AE66A710E17
:101A7000E66E0F0EE66E6CEC16F0146E050EE15E6F
:101A80001450200EE66EE66AE66A000EE66E040E5C
:101A9000E66E6CEC16F0146E050EE15E14506D8C63
:101AA000DF6A020EDF5C10E2DF50EA6A260FE96EA1
:101AB000010EEA22EF6ADF50EA6A280FE96E010E92
:101AC000EA22EF6ADF2AEDD7010EE66EE66AE66AE1
:101AD000020EE66E010EE66E6CEC16F0146E050E4C
:101AE000E15E14506D9C0101080E0B6F040E0C6F2B
:101AF000000E036F040E046F03C105F1066F22C4CC
:101B000001F1015102E1100E12D0010EE66EE66AFB
:101B1000010EE66E010EE66E010EE66EE66AC7EC99
:101B200013F0146E060EE15E14500101200E006FDA
:101B3000E552E552E7CFD9FF1200800E0401205D87
:101B400001E09ED00101C00E146F04012351030A6D
:101B500057E0010A0CE0030A01E090D00101280ED1
:101B6000116F2A0E126F000E136F120E81D0E00E4D
:101B7000146E2A0E156E000E166E22C417F0186A27
:101B8000196A030E0C6E0D6A0E6A17C007F018C0B2
:101B900008F019C009F023EC16F014500424F36E79
:101BA00015500520F46E16500620F86EF4CFF7FF9E
:101BB000F3CFF6FF0900F5CF11F10900F5CF12F1CF
:101BC0000800F5CF13F111C1F6FF12C1F7FF13C1E1
:101BD000F8FF020EF626000EF722F8220800F5CFD5
:101BE00015F111C1F6FF12C1F7FF13C1F8FF030E83
:101BF000F626000EF722F8220800F5CF16F11200A3
:101C0000030E225D38E2E30E146E2A0E156E000EEE
:101C1000166E22C417F0186A196A030E0C6E0D6A4C
:101C20000E6A17C007F018C008F019C009F023ECBD
:101C300016F014500424F36E15500520F46E16505F
:101C40000620F86EF4CFF7FFF3CFF6FF0900F5CFCB
:101C500011F10900F5CF12F10800F5CF13F111C110
:101C6000F6FF12C1F7FF13C1F8FF0800F55001019C
:101C7000156F166B12000101146B12000101146B39
:101C80001200D9CFE6FFE1CFD9FF020EE126040111
:101C9000286B296B20511F0B020A11E0030A0CE08C
:101CA000010A3CE10101148F040128810101210591
:101CB00035E10401288332D00101148F2FD00101B6
:101CC000148F040124BF0BD024510F0BE96EEA6A74
:101CD000D890E936EA36070EE926010E0AD02451DB
:101CE0000F0BE96EEA6AD890E936EA360B0EE92660
:101CF000010EEA22EECFDEFFEDCFDDFFDECFE9FF02
:101D0000DDCFEAFFEF50800B09E0DECFE9FFDDCF4A
:101D1000EAFFEF50040B02E0010E286F010114AF3F
:101D200007D0280E116F040E126F1481020E156F6A
:101D3000020EE15C02E2E16AE552E16EE552E7CFB4
:101D4000D9FF120070A015D003C1E9FF04C1EAFF5A
:101D5000EF5080080DE10BC1E9FF0CC1EAFFEF5025
:101D6000840806E103C1E9FF04C1EAFF8C0EEF6EAF
:101D70007090689A1200698468986D820101010E62
:101D8000226F000EE66EE66AE66EE66A750EE66E95
:101D9000E66AC7EC13F0146E060EE15E14501200F2
:101DA0000101226B000EE66EE66AE66EE66A740ECC
:101DB000E66EE66AC7EC13F0146E060EE15E145090
:101DC0006D92699468A402D06894FCD71200D9CFB0
:101DD000E6FFE1CFD9FFE65201012D0E2A6FFD0E7D
:101DE000231553E17E0E2315E8407F0B040DF3CF3E
:101DF00003F1F4CF04F1000E0327040E042303C102
:101E000005F104C106F1057503C1E9FF04C1EAFF4C
:101E1000EF503C0BE842E8420D0835E1DF6A080E5E
:101E2000DF5C23E203C1E9FF04C1EAFF020EE926F9
:101E3000000EEA22EE50EFCFEAFFE96EEF50E66EB9
:101E4000DF50EA6A200FE96E040EEA22E552E750FD
:101E5000EF6E03C1E9FF04C1EAFF020EE926000E9E
:101E6000EA22EE2AEF22DF2ADAD703C1E9FF04C112
:101E7000EAFF020EE926000EEA22200EEE6E040EA4
:101E8000ED6E0DD807D03AD805D0FD0E2315040805
:101E900001E159D8E552E552E7CFD9FF120001011F
:101EA0000F6B2B6B2E6B2F6B256B106B0BC1E9FF30
:101EB0000CC1EAFFEF9E0B750BC1E9FF0CC1EAFFF5
:101EC000EF9E0B7505C1E9FF06C1EAFFEF9E146B9B
:101ED000156B166B196B1A6B1B6B8FD8000EE66EA9
:101EE000E66AE66EE66A030EE66EE66AC7EC13F093
:101EF000146E060EE15E1450C7EF0BF0020E0101E6
:101F0000105D02E18AEF0CF0106B25511AE105C15A
:101F1000E9FF06C1EAFFEE52080EEF6E05C1E9FFC8
:101F200006C1EAFF020EE926000EEA22200EEE6E3E
:101F3000040EED6E05C1E9FF06C1EAFF8C0EEF6EDF
:101F40001200256B1200D9CFE6FFE1CFD9FFE65290
:101F50000BC1E9FF0CC1EAFFEF50400B01E0010E9D
:101F6000DF6E01010B75080E005D08E122C46EFFF3
:101F70006E5002E0100E01D0040E006F100526E135
:101F80000BC1E9FF0CC1EAFF020EE926000EEA22AE
:101F9000280EEE6E040EED6E5BDC020E01010F5D8D
:101FA00006E10BC1E9FF0CC1EAFF840E0DD0DF5042
:101FB00006E10BC1E9FF0CC1EAFFC80E05D00BC159
:101FC000E9FF0CC1EAFF880EEF6E12D019AF0FD0F7
:101FD0001C511D111E1109E007D01EC1FBFF1DC1C0
:101FE000FAFF01011C51F96EF8DF0101199F106B16
:101FF000E552E552E7CFD9FF120004012051600BF2
:10200000E842E842E842E842E842000901E0120002
:1020100021510C0A50E00B0A3FE00C0A31E0010AA2
:1020200022E00B0A1EE0020A1CE0030A18E0080A7C
:1020300010E0010A0CE00F0A08E0030A01E01200B8
:102040000101148F080E006F12009DEF0DF02CEFB0
:102050000DF00101010E116F010E126F0CD041EF56
:102060000EF05CEF10F024510101116F126B020EA3
:102070001127010E12231481010E156F148F120007
:102080000101148F04012451EA6A020FE96E010E66
:10209000EA2222C4EFFF1200000EE66EE66AE66E48
:1020A000E66A020EE66EE66AC7EC13F0146E060EE0
:1020B000E15E145012001200D9CFE6FFE1CFD9FF44
:1020C000050EE1260401220510E120511F0B000935
:1020D0000CE10101148F030E0401215D04E10101F3
:1020E000010E216F02D00101216B0401225101E098
:1020F00011D120511F0B020801E00CD124510F0B0C
:10210000000901E107D124510F0B010801E202D1BE
:10211000200E0101005D01E0FDD0148F040124BFF9
:1021200016D024510F0BE96EEA6AD890E936EA36E8
:10213000070EE926010EEA22EECFDEFFEDCFDDFF2E
:1021400024510F0BEA6A280FE96E010E15D02451B5
:102150000F0BE96EEA6AD890E936EA360B0EE926EB
:10216000010EEA22EECFDEFFEDCFDDFF24510F0B93
:10217000EA6A260FE96E010EEA22020EEFCFDBFFBC
:10218000D950020FE96EDACFEAFFEF50010B03E1FD
:10219000000EDF9401D0DF8424BF0BD024510F0B3D
:1021A000E96EEA6AD890E936EA36070EE926010EAA
:1021B0000AD024510F0BE96EEA6AD890E936EA3664
:1021C0000B0EE926010EEA22DECFEEFFDDCFEDFF9A
:1021D000030E215D20E1DECFE9FFDDCFEAFFEF5006
:1021E000800B11E024BF07D024510F0BEA6A280F9F
:1021F000E96E010E06D024510F0BEA6A260FE96E34
:10220000010EEA22EF82840EDECFE9FFDDCFEAFF86
:10221000E850EF127FD0DF74DECFE9FFDDCFEAFFB9
:10222000EF50800B1BE0DECFE9FFDDCFEAFFEF9E32
:10223000DECFE9FFDDCFEAFFEF8C020EE66EE66A45
:10224000DECFE6FFDDCFE6FF050EE66EE66AC7EC01
:1022500013F0146E060EE15E145005D0DECFE9FFD8
:10226000DDCFEAFFEF8CDF74D950020FE96EDACFD1
:10227000EAFFEF50020B07E1DECFE9FFDDCFEAFF17
:10228000EF50800B2BE0040124BF07D024510F0B2B
:10229000EA6A280FE96E010E06D024510F0BEA6A94
:1022A000260FE96E010EEA22EF923B0E146EDECF8E
:1022B000E9FFDDCFEAFFE850EF16020EE66EE66AB0
:1022C000DECFE6FFDDCFE6FF050EE66EE66AC7EC81
:1022D00013F0146E060EE15E145007D03B0EDECFF5
:1022E000E9FFDDCFEAFFE850EF16040124510F0BA0
:1022F000156A700F146E0F0E1522030E14C0DBFF4B
:10230000040E15C0DBFF030EDBCFE9FF040EDBCFAD
:10231000EAFFEF90050EE15C02E2E16AE552E16E50
:08232000E552E7CFD9FF1200DE
:08232800D9CFE6FFE1CFD9FF98
:10233000040EE126DE6ADE6ADE6ADD6ADD52DD5207
:10234000800EE66EE66AE66A6E0EE66E000EE66ED9
:102350006CEC16F0146E050EE15E1450A96AA69E90
:10236000A69CA680A8CF6DF0040E00016D5D01E370
:102370006D6BAE0E146E2D0E156E000E166E6DC0CA
:1023800017F0186A196A030E0C6E0D6A0E6A6DC09A
:1023900007F018C008F019C009F023EC16F004C0CB
:1023A00017F005C018F006C019F014500424F36E9D
:1023B00015500520F46E16500620F86EF4CFF7FF86
:1023C000F3CFF6FF0900F5CF69F00900F5CF6AF009
:1023D0000800F5CF6BF00CD88150800B02E0000EA6
:1023E00001D0010E00016C6FA8EC08F012D8FCD7E8
:1023F0000F0EC112F16A140E8A6EEB0E936E938E5D
:102400000001010E646F606B616B626B636B1CEFAC
:1024100008F00001640502E136D90CD06507000E12
:10242000665B675B685B655166116711681102E165
:10243000010E646F200E0101E76E0019E8AE02D0B4
:10244000E73402D0E750005D05E36D50020B01E078
:10245000120001D81200D9CFE6FFE1CFD9FF020E5A
:10246000E126F2D8000965E000016E6B6C5120E0B6
:102470006D2B040E6D5D01E36D6BA96A6DC0A8FF45
:10248000A69EA69CA684550EA76EAA0EA76EA6822F
:102490008E0EE66E2D0EE66E000EE66E6E0EE66E8B
:1024A000000EE66E86EC16F0146E050EE15E14501A
:1024B000AE0E146E2D0E156E000E166E6DC017F05A
:1024C000186A196A030E0C6E0D6A0E6A6DC007F069
:1024D00018C008F019C009F023EC16F004C017F07A
:1024E00005C018F006C019F014500424F36E1550FE
:1024F0000520F46E16500620F86EF4CFF7FFF3CFE8
:10250000F6FF0900F5CFE6FF0900F5CFE6FF08006A
:10251000F5CFE6FF6E0EE66E000EE66E86EC16F068
:102520001A6E050EE15E1A5001016E0E306F000E3C
:10253000316F00016051611102E1000E08D060C0EE
:10254000E9FF61C0EAFFEF50800B01E0010E0009D6
:102550003DE1080EE66EE66AE66A000EE66E050EDE
:10256000E66E6CEC16F0146E050EE15E145030C190
:10257000E9FF31C1EAFFEF5016E030C1E9FF31C198
:10258000EAFFEF50E66E76EC15F0E552F3CFDEFF92
:10259000F4CFDDFF0101302B000E3123010EDBCF24
:1025A00000F5DFCF02F5080EE66E000EE66E050EB2
:1025B000E66E010EE66EE66EA3EC09F0146E050EF3
:1025C000E15E1450F3CF60F0F4CF61F0000162518E
:1025D000631102E1000E08D062C0E9FF63C0EAFFA8
:1025E000EF50800B01E0010E000924E1050108A174
:1025F00003D08A888A8402D08A988A940001646B06
:10260000E00E656F220E666F020E676F686B010E3B
:10261000E66E080EE66E050EE66EE66A010EE66EE2
:10262000A3EC09F0146E050EE15E1450F3CF62F0D6
:10263000F4CF63F0020EE15C02E2E16AE552E16E82
:10264000E552E7CFD9FF120081BE07D00101322B3E
:10265000000E33233423352306D00101326B336B54
:10266000346B356B366BA00E32190CE10F0E33193B
:1026700009E1345107E1355105E1365103E1010E1D
:10268000366F010C000C01013751381104E1100EB6
:10269000376F270E386F3707000E385B6DA207D0F3
:1026A000375138112FE18A788AB828D01BD0010120
:1026B000005102E18A9816D0000502E18A881ED0F6
:1026C000020E005D02E18A880DD0040E005D02E179
:1026D0008A9814D0100E005D07E1010137513811BE
:1026E00011E18A788A941200200E005D0BE101014D
:1026F000640E375D000E385903E28A888A8412001E
:102700008A988A9412008A988A94130ED36E1200C3
:10271000D9CFE6FFE1CFD9FF020EE126600ED36EDE
:10272000200EDE6E030EDD6EDFCF14F0DF06010E2D
:10273000DBCF15F001E2DB0614501510F5E1020EB7
:10274000E15C02E2E16AE552E16EE552E7CFD9FFD2
:102750001200ADEF14F01E0EE66E010EE66E6CEC8C
:1027600009F0E552E552010EE66E080EE66E050E22
:10277000E66EE66A010EE66EA3EC09F0146E050E35
:10278000E15E1450F3CF62F0F4CF63F01200D9CFC2
:10279000E6FFE1CFD9FFFD0EDBCF08F0FE0EDBCF69
:1027A00009F0050E081801E1095030E0E868081842
:1027B00002E17F0E09182AE0030E081801E1095012
:1027C00024E0020E081801E1095020E0010E08186B
:1027D00001E1095018E0740E081801E1095011E0F8
:1027E000750E081801E109500AE0730E081801E19E
:1027F00009500CE0720E081809E1095007D083DF78
:1028000005D086DF03D0A7DF01D0A3DF010EE5529C
:10281000E7CFD9FF12000101280E176F040E186FC1
:10282000080E1A6F1B6B360E1C6F280E1D6F000EE4
:102830001E6F198F1200040128A103D08A888A8490
:1028400002D08A988A940001646BE00E656F220EB4
:0A285000666F020E676F686B1200DE
:06285A0000000000000078
:1028600000002A000000009E0000000000000000A0
:10287000000000000029000000002C1E342021224E
:1028800024342627555736563738271E1F20212235
:10289000232425263333362E37381F040506070830
:1028A000090A0B0C0D0E0F10111213141516171820
:1028B000191A1B1C1D2F3130232D3504050607085E
:1028C000090A0B0C0D0E0F10111213141516171800
:1028D000191A1B1C1D2F31303500000000000000AC
:1028E00000000000000000000000000000000000E8
:1028F00000000000000000000000020202020202CC
:1029000002020200020200000000000000000000BD
:1029100000000002000200020202020202020202A1
:102920000202020202020202020202020202020287
:10293000020202020000000202000000000000008B
:102940000000000000000000000000000000000087
:0929500000000000020202020076
:06295A00040120511F0BD7
:10296000010801E01200245101E01200060E215D71
:102970001FE12351230A1CE0010A0EE0030A18E1BB
:102980000101010515E101014C0E116F2A0E126FB4
:10299000000E136F090E08D00101A10E116F2A0E4F
:1029A000126F000E136F3F0E156F166BC00E146F73
:1029B00004012051600BE842E842E842E842E84264
:1029C000010801E0120021510B0A28E0080A1BE06F
:1029D000090A13E0080A07E00B0A03E0080A23E0EB
:1029E00012000BEF14F00101F80E116F000E126FC0
:1029F000010E156F166BC10E0FD00101800E146F02
:102A000023C4F8F012000101F90E116F000E126FCD
:102A1000010E156F166B810E146F12000101800EEE
:082A2000146F22C4F9F012004A
:082A2800120100020000000889
:102A3000D80455000100010200010902290001012A
:102A400000E0320904000002030101020921110122
:102A50000001223F0007058103080001070503016B
:102A60000800010403090426037000720069006D68
:102A700000690061006E006F007400750063006300
:102A80000069002E0063006F006D00000014034C0D
:102A900000470054004D002D00480049004400004C
:102AA0000005010906A101050719E029E715002520
:102AB00001750195088102950175088103950575D9
:102AC00001050819012905910295017503910395E6
:102AD000067508150025650507190029658100C0E0
:0C2AE0003A2A00632A00672A008D2A00B1
:042AEC00D9CFE6FF59
:102AF000E1CFD9FF020EE126FE0EDB507F0BE76E21
:102B0000FE0EE7CFDBFF5A0E146E280E156E000E78
:102B1000166EFE0EDBCF17F0186A196A17AE02D0D8
:102B20001868196814501724F36E15501820F46EA5
:102B300016501920F86EF4CFF7FFF3CFF6FF080018
:102B4000F550DF6ED90E146E280E156E000E166E3F
:102B5000FE0EDBCF17F0186A196A17AE02D018689C
:102B6000196814501724F36E15501820F46E16507F
:102B70001920F86EF4CFF7FFF3CFF6FF0800010E2F
:102B8000F5CFDBFFDECF14F0DDCF15F014C0F3FF7F
:102B900015C0F4FF020EE15C02E2E16AE552E16E6B
:082BA000E552E7CFD9FF120056
:082BA8002A0EF66E100EF76E06
:102BB000000EF86E00010900F550F36F0900F550A2
:102BC000F46F03E1F36701D03DD00900F550EE6FDB
:102BD0000900F550EF6F0900F550F06F090009008A
:102BE000F550E96E0900F550EA6E09000900090088
:102BF000F550F16F0900F550F26F09000900F6CFAA
:102C0000F5F0F7CFF6F0F8CFF7F0EEC0F6FFEFC033
:102C1000F7FFF0C0F8FF0001F15302E1F25307E0C3
:102C20000900F550EE6EF107F8E2F207F9D7F5C0AA
:102C3000F6FFF6C0F7FFF7C0F8FF0001F307000E3C
:062C4000F45BBFD7120097
:0A2C460009C013F008C012F007C027
:102C500011F007500C02F4CF05F0F3CF04F0085048
:102C60000D02F4CF07F0F3CF06F00C02F350052667
:102C7000F4500622E86A072211500D02F35005268F
:102C8000F4500622E86A072209500C02F350062687
:102C9000F450072209500D02086AE86A0822F3502E
:102CA0000726F450082211500E02F3500626F45065
:102CB0000722096AE86A0822092212500E02F3501C
:102CC0000726F4500822E86A092213500E02F35036
:082CD0000826F4500922000C53
:082CD800FE0EE3CFE9FFFF0E41
:102CE000E3CFEAFFE9CFF3FFEACFF4FFFB0EE350B7
:102CF00003E1FC0EE35009E0FB0EE30602E2FC0EEA
:102D0000E306FD0EE350EE6EF1D71200FB0EE3CFAB
:102D1000F6FFFC0EE3CFF7FFFD0EE3CFF8FFFE0E4C
:102D2000E3CFE9FFFF0EE3CFEAFFE9CFF3FFEACFFE
:102D3000F4FFEE66FED7ED520900F5CFEFFFEE6629
:042D4000FBD71200AB
:0C2D44007374616D707479207374616D9C
:102D500070204C47544D2000322C332D64696D6532
:102D60007468796C2D312C332D62757461646965DA
:102D70006E652D7374616D70204C47544D20005268
:0E2D8000532D4C47544D20004C47544D20001D
:022D8E002A2DEC
:102D90002A2D2A204C47544D2D48494420636F6EFC
:102DA000666967202A2D2A2D2A2020202000882DC0
:0A2DB000007F2D00582D00442D0077
:062DBA00000EF36E00EEB6
:102DC00000F0080E01D81200EA6002D0EE6AFCD7CB
:0A2DD000F350E9601200EE6AFCD730
:062DDA0013EE00F023EEF1
:102DE00000F0F86A019CD4EC15F0FBEC16F094ECC2
:062DF00011F0FBD71200F8
:022DF6001200C9
:082DF8006E0000000000010064
:012E000000D1
:020000040030CA
:0100000034CB
:010001000EF0
:010002003EBF
:010003001EDE
:0100050001F9
:010006008178
:00000001FF
